:100000006F00A06F000000000E0200001002000050
:1000100000000000000000000000000000000000E0
:1000200000000000000000000000000000000000D0
:10003000F806000000000000F806000000000000C4
:10004000F8060000F8060000F8060000F8060000B8
:10005000F8060000F8060000F8060000F8060000A8
:10006000F8060000F8060000F8060000F806000098
:10007000F8060000F8060000F8060000F806000088
:10008000F8060000F8060000F8060000F806000078
:10009000F8060000F8060000F80600000000000066
:1000A000511126C022C206C4828282441244A24058
:1000B000310182802A86014593F6150091C232955E
:1000C00085810606F5F9828000000000634E050276
:1000D00063C305042E86AA857D5515C285466378BF
:1000E000B6006356C00006068606E36CB6FE014500
:1000F00063E4C500918D558D85820582F5FA828075
:100100008682C93F2E8582823305A04063D70500D1
:10011000B305B040C1B7B305B0408682653F330533
:10012000A0408282868263C70500634905005D376F
:100130002E858282B305B040E35B05FE3305A04007
:10014000513F3305B04082820000EFF27FF513018A
:10015000C1FD854513050023EF00B00737150140A9
:1001600091478A8513050540372401407C8002C4ED
:10017000EF00607C13050440EF002063B7070E001A
:100180003ECC6C008547130504402300F10202C6F3
:1001900002C802CA02CEEF00A063854513050440E1
:1001A000EF00E06713050440EF006068930404402B
:1001B0002685EF0060686DFD13050440372401407B
:1001C000EF000068130404402285EF0000686DFD15
:1001D00013014102D9BDEFF2BFEC3724014089463B
:1001E00005468D4513050440EF002068854513053D
:1001F0000440EF0000669304044089452685EF0023
:10020000E07265DD13050440EF00C07179BD01A007
:10021000B707EFBE37E700E0938707083CC701A0A8
:10022000EFF21FE861110545EF0020798521EF000D
:10023000F012213FD120F12A1305800CEF00501558
:1002400037040020AD24413F2A861605118D0A058A
:1002500032950E059305F03F118D32C2A53D124631
:1002600085652AC0938545CE3285A9351246B735B6
:100270000000AA849385450813058401EF104015FA
:10028000130684018145014545249305F03F2685E9
:1002900091359305803EAD35B7A50F002AC29385F1
:1002A00085C12685053D9246B73500002A8693858F
:1002B000850913058401EF10A011130684018545FB
:1002C00001459D240246B73500009385050B1305B3
:1002D0008401EF10E00F1306840189450145A9242C
:1002E0002C8037350140130505C0EF00D0051305FC
:1002F0002003EF00F00981BFEFF29FDA05651301DB
:1003000081FD854513050581EF00A06CA1477C8622
:10031000E1473ECA6C008D47371501403EC8212D8C
:1003200037340140DD473EC08A859307703E130590
:1003300004C03EC223040100EF00606DC1679387D3
:1003400007063ECC2C089307401F130504C0FC870A
:1003500023100102EF008070130504C08145EF00F7
:10036000A07D130504C08145EF00607B130504C028
:100370008545EF0060798545130504C0EF0040779F
:10038000130181021DB3EFF2BFD1AA84A1C989452F
:1003900037150140392D914537150140292D21444C
:1003A000C14537150140012D93978401E1879305DD
:1003B00000023715014063D80702E52B7D1486043F
:1003C000C145371501401374F40F93F4F40FD5238E
:1003D00061F8914537150140E92BC1B989453715B9
:1003E0000140D12B4DBFC12BD1BFEFF27FCB814557
:1003F000593F65B9EFF2DFCA2A8413E5050BF537DB
:100400001355440013650501CD371375F400F13F12
:1004100069B9EFF2FFC85111930770037C80C1479F
:100420003EC48A858D47371501403EC22923854544
:1004300037150140BD2B2945EF00807585453715DF
:100440000140952B2945EF00A074854537150140E3
:100450008D232945EF00C0731305200E793713054E
:10046000C00261371305E00249371305F002B53FBA
:100470001305800F9D3F01458D3F13055002B53791
:10048000130510089D371305000285371305200A50
:10049000A93F1305800C913F1305000AB9371305D6
:1004A000600AA1371305F00A89373101FDBEEFF26A
:1004B0003FBF0144A2850145353F93044008FD1428
:1004C0008545014593F4F40F7D3DF5F8050413745B
:1004D000F40F9147E310F4FEC9BEEFF27FBC711137
:1004E00032C0093F0246930700021304000263432F
:1004F000F600328493178401E187139417003E9429
:100500008D670604938747E43E949944034504F4B9
:10051000FD14854593F4F40FBD350504E5F88545D4
:1005200001459535110151B6EFF29FB771112A843B
:10053000AE87B2840386040019E21101BDB6130729
:10054000D007E36C87FEBE8522853EC01D0471374F
:1005500085041374F40F8247F1BFEFF27FB43714B0
:1005600002401C403707FFF8611193E717001CC0D9
:100570005C404145F98F5CC01C403707F7FE7D1792
:10058000F98F1CC01C403707FCFF7D17F98F1CC07A
:100590005C4041777D17F98F5CC0B7079F001CC492
:1005A00005211C4C3706020093E707021CCCB71745
:1005B000014003A70740938607401377F7F023A075
:1005C000E74003A707401367070823A0E7408947D0
:1005D0009CCA02C002C21C4C37070140A16693E7C7
:1005E00017001CCC5C43D58F5CC31C404167B71619
:1005F0000240D98F1CC009679C42F18F3EC28247DE
:1006000085073EC0924781E78247E397E7FEB71729
:1006100002409C431397E7006358070685473EC294
:10062000124785476310F706B72702409843C17603
:10063000FD16719B98C398431367170098C3B717AB
:100640000240D843D8C3D843758FD8C3D843C166B6
:10065000558FD8C39843B7060001558F98C3984368
:1006600093166700E3DD06FED843B7160240719B80
:10067000D8C3D84313672700D8C32147DC42B18BC6
:10068000E39EE7FE210115B402C259BFEFF25FA15C
:10069000371702405C43370400209146B18B1304A6
:1006A00004016385D700A1466382D704B7376E0182
:1006B000938707601CC0B7160240DC420840918354
:1006C00013F7F700B707002093870700BA978C232A
:1006D000DC4293F5F50F93F707083357B50081E730
:1006E000EFF05F9F2A8718C06FF03F9C5C43B7779D
:1006F000DC02938707C07DBF01A097010020938192
:10070000E111138181FE1305000A970500209385EE
:10071000658F170600201306E68E63FAC500832254
:10072000050023A0550011059105E3EAC5FE173524
:1007300000001305E5AD970500209385A58C1706ED
:1007400000201306A68D63FAC5008322050023A0AE
:10075000550011059105E3EAC5FE170500201305B4
:10076000E58B938581826377B50023200500110511
:10077000E36DB5FEB72200009382028873900230C9
:100780008D4273904280970200009382A28793E289
:10079000320073905230EFF05FDC970200009382DA
:1007A00062A87390123473002030B72701409387FA
:1007B0000740631EF500EFF2BF8E8545130500204C
:1007C000052C81451305002025246FF01F8E8280A3
:1007D0005C413707F1FF1307F7EF7D8FDC41944150
:1007E000A207D58FD98F5CC11C4537F7F1FF1307DE
:1007F000D77FD4457D8F9C49D58F94458606D58F6C
:10080000D98F1CC55C55370710FF7D177D8FDC29FC
:10081000FD1793F7F70FD207D98F5CD582801C455F
:1008200089C593E717001CC58280F99BEDBF1C4565
:1008300093E787001CC5828008450D810589828069
:100840001C4593E747001CC582800845098105893E
:1008500082801C4591C537075000D98F1CC5828006
:100860003707B0FF7D17F98FD5BFA54763F8B704E9
:10087000138765FF931717008322C500BA971D439E
:100880003313F3001343F3FF33735300B397F600AE
:10089000B3E767005CC5994763E3C7047D16931708
:1008A00026003E965859FD47B397C70093C7F7FFF8
:1008B000F98FB395C500DD8D4CD9828093971500D3
:1008C00003230501AE971D473317F7001347F7FFC2
:1008D00033776700B397F6005D8F18C96DBFB147D6
:1008E00063E2C7026516931726003E961859FD4726
:1008F000B397C70093C7F7FFF98FB395C500DD8D98
:100900000CD982804D161317260054553A96FD4790
:10091000B397C70093C7F7FFF58FB395C500DD8D7B
:100920004CD58280684542054181828008416D8DA9
:100930003335A0008280944593F7060193F2F600C8
:1009400081C7DC41B3E2F20083D3050093F7F30FD4
:10095000A5C303230500611122C226C081471304E9
:1009600080029304800405473316F70033F7C30071
:100970006312E602939527003D473317B7001347EC
:10098000F7FF33736700B395B20033E36500639DEF
:10099000860050C985072147E397E7FC12442320CE
:1009A0006500824421018280E39696FE10C9DDB77E
:1009B00082800CC982804CC9828023A0A18282805F
:1009C000371702401C430E0593F777F05D8D08C37F
:1009D000828099C5371702401C4F5D8D08CF8280F9
:1009E000B7170240984F1345F5FF798D88CF828065
:1009F00099C5371702405C475D8D48C78280B7179D
:100A00000240D8471345F5FF798DC8C782801E2163
:100A100037370140130707C0C207C1836306E500EB
:100A2000370700406316E500BA2193F7F7F8D98F2E
:100A3000FA2193F7F7CFC207C183D98F1EA1DE2118
:100A40005EB59E211EB5B7370140938707C063147A
:100A5000F5009C251EB985475EA982801E31922132
:100A600003D38500C207C18393F7F7EFC207C183A1
:100A70001EB11E3156215A2DC207C1834207418340
:100A80001377C7F8518FB22193F7F7DFC2063366A9
:100A900066002206D18F13960701B737014093876E
:100AA00007C0C1824182631FF502FD779387F77FFC
:100AB000F18FB22503D3C5002206D18FD221C20700
:100AC000C183220693F7F7BFD18F13960701F577FD
:100AD000FD17FD8EFE254182B3E767009207DD8E8C
:100AE000C206C182FE2156A15AAD5CDD12B18280E0
:100AF0001E2189C593E717001EA18280C207C1830A
:100B0000F99BC207C183CDBF8357450491C52167B7
:100B1000D98F2312F5048280C607C583DDBF1E214D
:100B200089C593E707081EA18280C207C18393F796
:100B3000F7F7C207C183C5BF5E2DC207C183DD9B26
:100B4000DD8D4EAD82804CDD828093F5F51F4EA188
:100B500082800A216D8D3335A0008280EFF24FD460
:100B6000B707002003A50701B7157A009385052074
:100B7000EFF04FD61375F50F2383A182931755001D
:100B8000898F8A073E950E052392A1826FF0EFD1DF
:100B9000EFF20FD137F400E05C40AA85F99B5CC00E
:100BA00003D54182EFF00FD108C8232404001C4074
:100BB00093E717001CC0B7F700E0D843058B75DF3B
:100BC0009843799B98C36FF04FCEEFF26FCD7111C0
:100BD000AE840144635DC402B747014013870780B8
:100BE0003A859305000432C0AD37B74701401387FB
:100BF0000780024675D53387840083050700138577
:100C000007800504C205C18189370246E1B73285F4
:100C100011016FF08FC9411106C62EC00DCD1841CC
:100C2000AA8705C358417D5511CB8546631BD70064
:100C300098472300070023A207000545B240410161
:100C400082809847824614A39847050798C7D843DF
:100C50007D17D8C3DDB705468A85853FF9BF0111E9
:100C600022CC2EC206CE26CA2A84814793050002D2
:100C7000634506029245BE95838505008DE563D8E0
:100C8000C70263D4E702198E1305000293F526000C
:100C90002AC089C501E7930500032EC0858A8144D7
:100CA00095EAB2840DA08507F1B71D8EF1BF01460C
:100CB000E1BF824522853AC832C63EC4A93FA24759
:100CC00032464247FD14E34690FEB2846353060069
:100CD0008144058E63C7E702A68792463387974013
:100CE00036978305070095EDB284634490046353FF
:100CF00006000146F2406244D2443305F600056125
:100D000082801D8FBA8793050003228532C83EC6B4
:100D10003AC41137B24722474246FD17EDF7BA945D
:100D200065BF228532C63EC4FD35A24732468507DF
:100D30006DB78245228532C43EC2F13DFD14224684
:100D4000924765B7397106DE22DC26DA3EC232836D
:100D50003A8689ED92469307000301476C08FC86AA
:100D6000FD3DF2506254D25421618280AA843684BF
:100D7000AE8791CA294701446317E30063D5050094
:100D8000B307B04005448646A309010213073103A7
:100D9000938666FC36C49A853E8532CA3AC81AC61E
:100DA0003EC0EFF0EFB5A546824732434247524678
:100DB00063D4A600A2463695130505039306F7FFF4
:100DC000A30FA7FE9A853E8532CC3ACA1AC83EC602
:100DD00036C0EFF02FB0B24742435247624663F944
:100DE000670401CC29CA9247898BB1C79305D00209
:100DF000268532C40D3522467D169247918B95C3C8
:100E000006479307100632C4930500032685631E28
:100E1000F7021135930580072685F53B2246090424
:100E200079161647924682452685153D229515BFAF
:100E3000AA8702478DB782469307D0020144A38F49
:100E4000F6FE9307E7FF3EC04DBFF13393058005E3
:100E5000E1B71301C1FB22DE86C03A8426DC32876B
:100E60002AC24D8E36838346C10415EA85C60D67B6
:100E70001307D7022310E10223010102964612450F
:100E800001473E860C10E13B86407254E254130148
:100E900041048280130700032310E102C5B7AE832B
:100EA00019CCA9460144631CD300635A0700B3035D
:100EB000B040B33670003307E040158F05449356B9
:100EC000F34136C0A646A30B010293047103938637
:100ED00066FC36C482461A861E85BA853ECC1ACA7E
:100EE0001EC83AC6EF005020A5463247C2435243BF
:100EF000E24763D4A600A246369582461305050351
:100F00009382F4FFA38FA4FEBA851A861E853ECE77
:100F100016CC3AC61ACA1EC8F92982463247E2429E
:100F2000F2476368D700C2435243639AE60263F80C
:100F3000630211CC8DCB1647098B15C7124593055B
:100F4000D0023EC416C0C139A2478242FD17964660
:100F5000124501473E8696851933229535B7AA83F7
:100F60002E87968485BF1307D002A38FE2FE01442B
:100F70009382E4FFE9BF130181FC22D82EC62A84A4
:100F80002E85B28506DA3AD03ECE26D632C8B68451
:100F9000EF1010362ACA2ECC3245C2450146814692
:100FA000EF00505FF2570257D2453EC2E257624609
:100FB0007D812AC43EC0A686BA8722850547513D59
:100FC0002AD09305E0022285B93182570543814337
:100FD00085073ED08147724763CEE7065245E2451A
:100FE0001AD21ED4EF10B03C2A86AE863245C245D6
:100FF000EF10403E1253A2532AC62EC81A859E8572
:10100000EF10F03A3247C2472A86AE863A85BE854F
:10101000EF003064EF10D02D13D6F541318DB3477A
:10102000B600B305C5403386C740F2573335B50027
:1010300002C43EC289473EC0F247A686098E0547D4
:101040002285013D8257D2504254B2543E9513013D
:10105000810382801A859E85294681463ED2EF1003
:10106000F05092572A83AE838507B5B7130141FD2F
:1010700022D226D006D42AC6AE82328402C8814447
:101080008385020089EDB24781C781453E8561367F
:10109000A2501254268582541301C1028280930704
:1010A00050026388F500324516CA8504AD36D24237
:1010B00039A88387120013871200639CB70032455A
:1010C000930550023ACA813E52478504BA8285028E
:1010D00045BFD5DB9306B0026389D70463C8F60029
:1010E000930630026386D704814705A09306D00299
:1010F000638AD70093060003E398D7FE1387220084
:10110000894721A01387220085478306070013061D
:10111000B0026383C6046341D60213063002638BB8
:10112000C602BA820145A54581A0138722006DBF82
:10113000138722009147D1BF1306D0026389C600EE
:1011400013060003E39FC6FC93E7270031A00507C1
:101150008547C1BF93E747000507E1B7131725008F
:101160003A9506053695850203870200930607FD2A
:1011700013F6F60FE3F4C5FE9306E0021946631E6C
:10118000D70085020146A54583860200938606FDA9
:1011900013F7F60F63F5E50232C8038702009306E2
:1011A000A006630DD70A63C3E6029306C004630773
:1011B000D70A93068006630CD70881452DA813171C
:1011C00026003A960606369685027DBF93064007AE
:1011D0006306D7089306A0076302D7089306C006E4
:1011E0008145631AD700838612008D456394E6001B
:1011F000850291458502038702009303000693064A
:10120000100663C4E300930610049303700663C4DE
:10121000E30693035006635977189303700463C180
:10122000E304930550046351B71893063004E310A8
:10123000D7EA18409303440016CC230EE1001ECADF
:10124000A30E01000147BE862A866C0851A883863A
:1012500012008145E391E6FA890271BF8502B1BFB0
:1012600013063006E307C7FC6340E6081306800553
:101270006303C702A9BD130630076305C704634CA7
:10128000E6021306F0066307C70E1306000793E78E
:101290004700E31EC7E211476394E50C9303840003
:1012A0000C40504016CC36C23EC01ECA02C4AA87AB
:1012B0000147C14689A813065007630BC7061306EA
:1012C00080077DB71840B73600009303440093852C
:1012D000460C11C3BA85424716CC1ECABE862A8662
:1012E0003245EFF0DF9715A011476395E5029303B0
:1012F00084000C40504016CC3EC01ECA02C436C208
:10130000AA870547A9463245A936D243AA94E242A4
:101310001E8475BB42470C4016CA3AC236C011043F
:101320002A87854629463245EFF0DFA1AA9441B3CA
:101330001147639EE500930384000C40504016CC97
:101340003EC01ECA02C436C2AA87014765BF4247D3
:101350000C4016CA3AC236C011042A878146D9B752
:10136000424716CA0C4041463AC236C011042A8789
:10137000814655BF1147639FE500930384000C40ED
:10138000504016CC36C23EC01ECA02C4AA870147CE
:10139000A14695BF42470C4016CA3AC236C0110456
:1013A0002A878146214641B70C40832044003307F9
:1013B000C5403245930384002E8436C23EC07D175B
:1013C000B287A9460686A28516CC1ECA6D3635BFE1
:1013D000130141FD32CE3ED42AC67008FD574800A5
:1013E00006CC36D03AD202C23EC432C04131E240CD
:1013F0001301C1028280130141FD06D422D226D0FE
:101400002A87AE8763910620B68432832A8463FEDE
:10141000C50EC166AE826363D626B7060001636758
:10142000D64893558601E14497260000938646CE20
:10143000AE969422B69493060002858E99CAB3970D
:10144000D700B35497003313D600B3E2F40033143B
:10145000D70093540301A68516851AC216C0EFE083
:101460003FCA124382422AC693170301C183A6854D
:1014700016851AC43EC0EFE0FFC5AA852AC2024500
:10148000EFE05FC332479357040192464207D98F7A
:10149000224363FAA7009A971387F6FF63E4670075
:1014A00063ECA742BA86898FA6853E8536C61AC8E0
:1014B0003EC4EFE0FFC4A247A6852AC23E85EFE006
:1014C0007FC1AA85AA84024542044180EFE09FBE05
:1014D0009242B246C20233E48200637CA4004243DB
:1014E0009387F4FF1A9463656400F9146363A4009E
:1014F000BE849397060133E597008146B685A250D6
:10150000125482541301C102828011EA2EC22AC0F1
:1015100081450545EFE01FBC924702472A83C1661B
:101520006365D314B70600016366D338135683018D
:10153000E144972600009386A6BDB29683C20600BA
:1015400013060002A69233065640631206141317C0
:1015500003014183B3876740935403013AC0854632
:10156000A6853E8536C81AC63EC2EFE07FB99247CF
:101570002AC4A6853E85EFE0FFB582452AC2EFE08A
:101580007FB322479357040132434207D98FC246A3
:1015900063FBA70012469A971307F6FF63E4670000
:1015A00063EFA7323AC2898FA6853E8536C81ACA2C
:1015B0003EC6EFE0FFB4B247A6852AC43E85EFE001
:1015C0007FB18245AA844204EFE0DFAEA2424180AF
:1015D000C246C20233E48200637CA4005243938774
:1015E000F4FF1A9463656400F9146363A400BE8475
:1015F0009247C20733E59700B685A2501254825431
:101600001301C102828063E1D504C16563E7B604BA
:10161000B705000163E8B62893D586016143172515
:1016200000001305E5AE2E950C219A9513030002D8
:101630003303B340631D031063E2F628B337C700DA
:1016400013C51700814619A081460145B685A250F1
:10165000125482541301C10282809305F00F63F289
:10166000D52693D5860021435DBF9306F00F1A86D9
:10167000E3F166EC13568300A14465BD9306F00FB9
:10168000B285E3F3C6DA93558600A14471BB3313E8
:10169000C300B3D6570093540301B397C700B352A6
:1016A00057003314C70013170301B3E7F200418357
:1016B000A68536853EC21AC83AC036C4EFE05FA49C
:1016C000A2462AC6A6853685EFE0DFA0AA852AC4F1
:1016D0000245EFE03F9E32469247A2464206C18352
:1016E000D18F424363FBA7009A971387F6FF63E30A
:1016F000671E63F1A71EF9169A973387A740A68540
:101700003A8536CA1AC83AC4EFE09F9F22472AC6D4
:10171000A6853A85EFE01F9CAA852AC40245EFE022
:101720007F99B24730822247C207D18F4243D246C7
:1017300063FBA7009A971306F7FF63E9671863F73F
:10174000A71879179A97C206898FD98E11BD33557C
:10175000B600B3966600C98EB353B7003ACC3317C0
:10176000660013D40601B3D4B7003AC4B397670038
:1017700013970601B3E7F3004183A28526853EC097
:101780001ACA36C83AC2EFE0BF972AC6A285268594
:10179000EFE05F94AA85AA841245EFE0BF91B243BF
:1017A0008247C246C20313D6070133E6C300524341
:1017B0006247637BA60036969385F4FF636AD61072
:1017C0006378A610F9143696098EA28532853ACC34
:1017D0001ACA36CE32C8EFE0BF924246A2852AC668
:1017E0003285EFE03F8FAA852A841245EFE09F8C77
:1017F000B24230805243C20233E6C2006247637C89
:10180000A600F2469305F4FF3696636FD60A637D11
:10181000A60A79143696C1669382F6FFA24693977C
:101820000401C18F33F45700098EB3F2560032C25F
:1018300093D3070193D4060122859685EFE09F8715
:101840002AC0A6852285EFE0FF862A8496851E851C
:10185000EFE05F86AA82A6851E85EFE0BF858246FF
:101860001694C182369463745400C16636959356BB
:1018700004013695924663E3A6026385A6003E8581
:101880008146E9B3416682457D16B376C400C2063F
:101890006D8E33176700B296E373D7FE1385F7FF9B
:1018A00081466DB393D50601414395BB935506011F
:1018B000C1449DBE13560301C144A5B981460545E7
:1018C00071B3B6850143A1BB2E84B1B73287A5BDE4
:1018D000AE84DDBDBA8615B5F9169A97E9B6130739
:1018E000E6FF3AC29A97C1B1797106D622D426D2C0
:1018F0002E83AA83639E061AB68432872A8463F7EE
:10190000C50EC167AE82637BF6209307F00FB286E7
:1019100063F5C70093568600A1449717000093878C
:10192000277FB6979C2313050002BE94B30795400A
:101930003EC099CB3313F300B3D493003317F600B2
:10194000B3E264003394F30093540701A68516852F
:101950003AC416C2EFE0CFFA224792422AC6931742
:101960000701C183A68516853EC2EFE0AFF6AA85C2
:101970001245EFE02FF43246935704012247420606
:10198000D18F63F7A700BA9763E4E70063E2A7404B
:10199000B386A740A68536853AC836C6EFE04FF62F
:1019A000B2462AC4A6853685EFE0CFF2AA85124555
:1019B000EFE04FF0A2479313040193D30301C20752
:1019C000B3E3770063F9A3004247BA9363E5E3000A
:1019D00063F3A300BA938247B383A340814533D511
:1019E000F300B250225492544561828011EA2EC213
:1019F0002AC081450545EFE0EFED124382432A8777
:101A0000C1676364F710B70700016360F736935648
:101A10008701E144971700009387876FB69783C2C9
:101A2000070013050002A692B30755403EC0639F0E
:101A3000070E93170701C1833303E3409354070153
:101A40003EC2A6851A853AC81AC6EFE06FEB32434C
:101A50002AC4A6851A85EFE0EFE79245EFE08FE50F
:101A600022469357040142474206D18F63F8A700EC
:101A7000BA9763E5E70063F3A700BA97B386A74078
:101A8000A68536853AC836C6EFE08FE7B2462AC447
:101A9000A6853685EFE00FE4924542044180EFE0F1
:101AA0006FE1A247C207B3E38700E3F6A3F229BFC1
:101AB000E3E9D5F2C16763E2F604B707000163EA20
:101AC000F62A13D78601E1429717000093874764EF
:101AD000BA979823930700021697998F639F070E72
:101AE00063E46600E3EFC3EE3385C340B305D34040
:101AF000B3B3A300B3857540EDB59307F00F63F260
:101B0000D72813D78600A142C1B79307F00FBA8632
:101B1000E3F2E7F093568700A144EDBDB70700015B
:101B2000636DF62493568601E144C5BB8247335664
:101B3000530032853317F70093540701B3D2530093
:101B40003313F30032C813160701B3E66200418273
:101B5000A6851ECA36C43AC632C2EFE06FDA4246E4
:101B60002A84A6853285EFE0EFD6AA851245420485
:101B7000EFE04FD4A2460247D24393D70601C18F6C
:101B80003394E300324763F8A700BA9763E5E700B0
:101B900063F3A700BA97898FA6853E853ACA3EC8E7
:101BA000EFE00FD6C2472AC6A6853E85EFE08FD26A
:101BB000AA851245EFE00FD032433C8452474203DE
:101BC0003363F3006378A3003A936365E3006373C0
:101BD000A3003A933303A340ADB5B352E600B396E6
:101BE000F600B3E2D20016C0B356E30036853313D5
:101BF000F30036CC3ECAB316F6003C8033D4E30083
:101C000093D402013AD0A685336764001ECE3AC24F
:101C10003EC436C6EFE0CFCEE2462AC8A68536855A
:101C2000EFE04FCBAA852A842245EFE0AFC84243BC
:101C30001247D247F2439356070142033397F3000A
:101C40003AC8B366D300025763FCA60082429305EC
:101C5000F4FF969663EC561263FAA61279149696E0
:101C6000898EA68536853ED03ACE36CCEFE04FC978
:101C7000E246A6852ACA3685EFE0CFC5AA85AA84A2
:101C80002245EFE02FC35243348272474203B366CA
:101C9000D300825763FCA60002469385F4FFB296F8
:101CA00063E4C60E63F2A60EF914B296416693037E
:101CB000F6FF32461313040133639300B3747300C9
:101CC000B3737600B382A640135303011354060185
:101CD00026859E85EFE00FBE2AC2A2852685EFE00D
:101CE0006FBDAA849E851A85EFE0CFBCAA83A2852A
:101CF0001A85EFE02FBC92469E94C182B69463F49D
:101D0000740041663295416692457D16B3F3C40076
:101D100093D60401C2036D8E3695B29363EDA20291
:101D20006388A202C2463385A240B3837640B3B52E
:101D30007600B305B5403395E500B3D3F3003365C2
:101D40007500B3D5F500B25022549254456182809B
:101D5000C246E3F976FCB2463386D3408246B3B33B
:101D6000C3009E96158DB28375BF93560701C1447B
:101D700055B113D70601C14281BB93560601C14438
:101D800069BE3687814289B3AE840DB72E84C9BD42
:101D9000BA97FDBE511113D74501B7071000FD17C3
:101DA00013D3460122C426C21377F77F9302F07F34
:101DB0002AC0B3F3B7003284F58FFD811373F37F2C
:101DC000FD82630B5702630C53000DEF33E5A30054
:101DD000631D03005D8E11EA814221C911A8B3E49D
:101DE000C7008942B9E07DD331A829C56384D502F3
:101DF000854285CDFD5215A833E5A300894215E53E
:101E0000630DE302631403005D8E7DD2E392D5FE81
:101E1000E340E3FE63496700E3EC77FC6382F3028F
:101E2000814263F4F300F9D5854222449244168539
:101E300031018280F5FAFD52CDBF5D8E61DAF5B7D2
:101E40008247E367F4FA82478142E3F087FEE9FDC7
:101E500055B7130181FC93D3450126D6AA879394E5
:101E6000C50006DA22D813F5F37FB180FD8175C96C
:101E70001307F07F6303E51A13D7D7018E04D98CBB
:101E800037078000458F13943700930715C03AC475
:101E90003EC08144014393D346019397C60093F318
:101EA000F37FB282B183FD82638003121307F07F58
:101EB0006385E3048E071357D6015D8FB707800053
:101EC0005D8F8247938313C0931236009E973EC066
:101ED00001458243B3C7D5003E8685033EC21EC678
:101EE000BD4763E79718971700009387671E8A041A
:101EF000BE9483A304009E97828733E7C7000246FF
:101F00001306F67F32C06316071493E4240081425F
:101F10000945C1B702C21307F07FB70708000144A3
:101F20009246B2072285D25042545207B183FE0630
:101F3000D98FD58FB254BE85130181038280368636
:101F40003AC416842A838947630EF3108D47E3034E
:101F5000F3FC854732C2631CF346014781470144C5
:101F6000C1B733E7F4003AC465C336C632C46380F0
:101F7000043826853EC22EC0EF00F06582459247A8
:101F80002246B246AA83130755FF7545138483FF83
:101F9000198DB394840033D5A700336795003AC4F4
:101FA000339487001305D0C0B307754093D346011F
:101FB0003EC093F3F37F9397C60081440143B282FE
:101FC000B183FD82E39403EE33E7C70035C3638733
:101FD000072E3E8532CC36CA1AC82EC63EC2EF0046
:101FE000905F9247B2454243D2466246AA831307A6
:101FF00055FF7545938283FF3307E540B39757003C
:102000003357E6005D8FB312560082470145B38314
:1020100077409387D3C03EC06DBD3E84C58F3EC41C
:1020200089EF9307F07FA14401443EC00943A5B561
:1020300093E414008142054569BD9307F07F26C4EF
:102040003EC0B1440D4381BD9144014402C00543EB
:1020500099B593E434003E870D45A5BD89472E868A
:10206000E316F3EE32C21307F07F814701444DBD02
:10207000C1649386F4FFB377D400B3F6D200B6837D
:1020800036D0418093D202013E85B685EFE08F8243
:102090002A8316C896853E85EFE0CF81AA829E8569
:1020A0002285EFE02F81AA83C2452285EFE08F8051
:1020B000935603019E92B6922ACC63F57200B30642
:1020C000950036CCC1639384F3FFB3F6920033736B
:1020D0009300C206F98C9A96418393D2020136CEC0
:1020E0003A833E85A685EFD0FFFC2A871ACA9A85D7
:1020F0003E85EFD03FFCAA87A6852285EFD09FFBC7
:102100002A83D2452285EFD0FFFA935607019A978A
:10211000B69763F367001E9541641306F4FFB3F5A9
:10212000C700718FC20593D60701B387E500A245AA
:102130008253AA9633F7C5003ED496973EC436D252
:1021400093D705013A859E85EFD0DFF62A83C245F5
:102150003A85EFD03FF6AA829E853E85EFD09FF567
:10216000AA83C2453E85EFD0FFF4935603019E92A9
:10217000B69263F372002295C166FD16B3F3D200E6
:102180003373D30093D20201C2033384A2009A9323
:102190003A85A685EFD01FF22A83D2453A85EFD043
:1021A0007FF12A87A6853E85EFD0DFF0AA82D2454F
:1021B0003E85EFD03FF09357030116973E97637427
:1021C0005700C1663695C166FD16B377D700C207C2
:1021D000B376D3002246E2451253BE96A2572E96FE
:1021E0009A96B334F600B38796001E96B38587009F
:1021F000B3337600B3827500B3B66600B3B7970009
:10220000DD8EB3B58500B3B372004183F247BA9651
:10221000B3E375009E961313960036953364F3006E
:10222000260593D77201B366F500333480005D82D2
:10223000518CA60236C4939776003364540063DE53
:1022400007009357140005885D8C93D716003EC491
:10225000B2471397F601598C3EC082471387F73F68
:10226000635DE00A9377740091CF9377F400914611
:10227000638AD700A2469307440033B48700A2962E
:1022800036C43E84A2469397760063DA0700B70708
:1022900000FFFD17F58F3EC4824713870740930761
:1022A000E07F63C1E712A247935634001377F77FAC
:1022B0001394D701A607558CB1839DB132853ECCCE
:1022C00036CA1AC82EC632C2EF00F03013075501C5
:1022D000F142930305021246B2454243D246E24719
:1022E000E3D9E2D061153317A600814239BB3E85A0
:1022F0002EC23EC0EF00302E1307550171439303E9
:102300000502824792452246B246E350E3C8611572
:10231000B397A7003EC4014471B18547998F39E74F
:10232000024722461305E7413317A4003315A600E0
:102330003354F4003337E000498C598C93767400A1
:102340003357F60081CE9377F40091466388D70027
:102350009307440033B4870022973E849317870085
:1023600063DA07040547814701445DBE9306800395
:10237000E3C5F6BEFD46E3D5F6FA22468556338719
:10238000E640930600023357E6006388D700824791
:102390009387E743B317F6005D8C33348000598C84
:1023A00013777400814719CB9377F4009146014766
:1023B000E390D7FA93179700B18376070D80598C75
:1023C0000147B9BE1307F07F8147014491BEB24770
:1023D0003EC061B5B7071000FD17211133F7B700F4
:1023E00026C60E079354D501F58F13D34601458FAA
:1023F000931435009353D60122C88E0713D4450198
:1024000006CA1373F37F9302F07F26C0B3E7F3008D
:102410001374F47FFD81FD82931336006305531816
:1024200093C61600B3046440638AD51263579018AC
:10243000630D031CB7068000D58F6307543A9306DB
:10244000800363CE9630FD4663C2964A930600022F
:10245000858EB392D70033D69300B393D300B3E203
:10246000C200B3337000B3D79700B3E272001D8F80
:102470008247B382574033B657003306C74093179D
:10248000860063D4071EB7038000FD133376760001
:102490002EC463090628328516C232C0EF00B0137D
:1024A00002469242A245930685FF93070002958F4C
:1024B000B3D7F2003316D6005D8EB392D20063C656
:1024C00086283384864013071400FD4763CDE73A1E
:1024D00093070002998FB3D6E200B392F200B317CC
:1024E000F600D58FB3325000B3E257003356E60002
:1024F000014493F7720081CF93F7F200114763888C
:10250000E70013874200B33257001696BA8293173A
:10251000860063DD0752930414009307F07F8589DA
:10252000638DF41E370780FF7D17718F1315D70158
:1025300093D23200260733635500318393F4F47F3E
:10254000D24042443207D20431839397F501B365F8
:102550009700DD8DB2441A85610182806353900C2F
:10256000630F0316B7068000D58F6305542E9306BC
:10257000800363C19618FD4663DA963C938204FE9D
:1025800013060002B3D65700638AC4001306000482
:10259000B3049640B3979700B3E3F300B3327000EF
:1025A000B3E2D200A1AAB3E277009304148063944B
:1025B000020093C616006386D506F1E413031400E7
:1025C0001373E37F631A031E13133500B3626700AE
:1025D00033E37700631B041A6387023A630C033CFE
:1025E00002433306F740B302734033355300098E7C
:1025F000131586006353054AB3826340998FB3B3C2
:10260000530033867740B685EDB5B3E67700638D2A
:1026100006149386F4FF63840638638D5422B684CF
:1026200039BD639B041C9306140013F3E67F631B00
:10263000033893163500D98E6313041A638D06424E
:10264000B3E677006388063682463E97B38276000B
:10265000B3B7D2003306F7009317860063D707009D
:10266000B70780FFFD177D8E054493F77200E39551
:1026700007E813D532009317D6013363F5001357DB
:102680003600A284CDA8B3048340631D041C824598
:10269000D98D6380052E9385F4FF6383053C130574
:1026A000F07F6388A41CAE841306800363459626DE
:1026B0007D4663469636024513060002058EB31228
:1026C000C700B35595003316C500B3E2B2003336E8
:1026D000C00033579700B3E2C200998F89A4B3E6D4
:1026E0007700D9C29386F4FF6385061C638E540E6F
:1026F000B684B5BDB3E77700B332F0008247BE922F
:1027000033B6F2003A9693178600E3D007F6050435
:102710009307F07F631CF41A85899304F07F0147C7
:10272000014339BD168532C216C075259306850151
:10273000FD4782421246A245E3D9D7D6130685FF4C
:102740003396C2008142E3DE86D6B70780FFFD17CD
:102750007D8E93F77200158CE39007DA19BFB3E70B
:102760007700B332F00029B30E051313D7010D81A2
:10277000336365000D839307F07F6385F4023207AE
:10278000318393F4F47F858965BB6393020C630204
:1027900003340E060D821393D7013363660013D7FB
:1027A0003700B6853367E30025DB81459304F07F6E
:1027B00037070800014369B302453306F740B30207
:1027C000754033355500098E131586006341052287
:1027D00033E3C200E31E03CA014781454DB763825C
:1027E0000622B3E77700F1F30E051313D7010D812D
:1027F0003363A3000D837DB7B3048340630A0412DF
:10280000370580009306F07F498F630CD31E930633
:10281000800363C19620FD4663C696280245930651
:102820000002858EB312D70033569500B316D5003B
:10283000B3E2C200B336D00033579700B3E2D20000
:10284000BA979E92B3B372003386F3001A8465BDC3
:10285000E31D03F40E051313D7010D8133636500E7
:102860000D8389B7370580009305F07F498FE31DFD
:10287000B3E20E061393D7010D823363C30013D75F
:102880003700B68505B7051493070002B3568600D6
:10289000630AF700930700043387E7403316E60026
:1028A000B3E2C200B3325000B3E2D20001460144A9
:1028B0006DBB8246BA97B382760033B6D2003E969D
:1028C000931786000544E3D207DA0944B70780FF6F
:1028D000FD177D8E93D7120093F21200B3E25700DA
:1028E0009317F601B3E25700058221B1938204FEEB
:1028F00013060002B3D65700638AC400130600040F
:10290000B3049640B3979700B3E3F300B33270007B
:10291000B3E2D200B1BE0246518FB332E000B382BF
:102920005340B3B35300338677401A84B68581BED3
:102930008246D98E638A06149386F4FF6381061A51
:102940001305F07F638FA40AB684D1B59306000205
:10295000858EB392D70033D69300B393D300B3E2FE
:10296000C200B3337000B3D79700B3E272003E9752
:1029700071B30E061395D7010D823363C50013D7CB
:102980003700B685CDBBE30903E40E060D82139331
:10299000D7013363660013D73700B685CDB38246BF
:1029A000B307F7400544B382764033B6560033860A
:1029B000C740F1B40E051313D7010D813363A30093
:1029C0000D8375BB1306F07FE388C6D40246BA9721
:1029D0003684B29333B6C3003387C7009312F7012E
:1029E00093D31300B3E2720013561700BDB9024629
:1029F000998FB685B382C340B3B353003386774013
:102A000041BC0E061393D7010D823363C30013D765
:102A1000370049BB8246558FB332E0001DB513869F
:102A200004FE930500023356C700638BB400930580
:102A30000004B38495408245331797004D8F3AC008
:102A40000247B332E000B3E2C200D1BD13D332007B
:102A50009317D6013363F30013573600A28421BBCA
:102A60000246998FB685B382C340B3B35300338611
:102A70007740054429B40E060D821393D7013363C2
:102A8000660013D73700E5B90E061393D7010D8200
:102A90003363C30013D73700F9B933E3C200E30D42
:102AA00003D2E1B6938604FE13060002B356D700A4
:102AB000638BC40013060004B30496400246331728
:102AC0009700518F3AC00247B332E000B3E2D20020
:102AD0008DBB81459304F07F3707080095B482468B
:102AE000BA97B3827600B3B3720033867700C9BB5E
:102AF00093D74501B70610001387F6FF93F7F77FCA
:102B00001306E03F6D8FFD816354F6021306D04338
:102B10006353F6028547B385B7403305B04093D77A
:102B2000F541B70500803337A0009D8D998D8280D7
:102B300001458145828013062043D98E635EF600ED
:102B40001387D7BA9387D7BC634707043317E500C9
:102B500001459DE1BA858280130730431D8F7D4674
:102B60006344E6029387D7BE3355E500B397F6007A
:102B70005D8D33D7E600F9DD3305A040B337A00003
:102B8000B305E0409D8D8280130530411D8D33D506
:102B9000A60001477DBF7D47135615001D8F335694
:102BA000E6003397F600518F3315F5005DB731110C
:102BB00006C822C626C4B367B500E1CFAA8413D4E1
:102BC000F50163CB050E2EC0638305102E852EC242
:102BD00019241307E0433306A74093073043AA8222
:102BE000924563D5C71293076043824663DAC702F2
:102BF0002147098F930707FE63CC0714B3D7F5006D
:102C00000147138382011385820363450312B39541
:102C1000640001454D8D3335A000B3E4A700BA86AA
:102C2000A147268563D0570293058002138382FF54
:102C3000B3855540B3D5B40033976600B3E6E500DD
:102C400033956400B70580FFFD159377750033F762
:102C5000B6008DC79377F500114363816702930334
:102C6000450033B5A3002A979317870063DE070E4C
:102C70001306F0436D8F330656401E851313D7019C
:102C8000931797000D813363A300B1831377F67F09
:102C900029A00144014781470143B2079316F4017B
:102CA000C240324413164701B183D18FD58FA2445D
:102CB0001A85BE85510182803305A040B337A0003C
:102CC000B305B0409D8D2EC0AA84E39105F0268502
:102CD0002EC01122930205021307E0433307574029
:102CE0009307A0021377F77F824563CD57025505FE
:102CF0009307B002B3875740B3D7F400B395A5004C
:102D0000CD8FB2073393A400B18341BF9397C50021
:102D10002D4526831377F67FB183E35055F813854D
:102D200052FFF9B7930755FFB397F400B207B18389
:102D30000143A5B7FD43B383A34013D31400B39558
:102D4000A50033537300B365B3003395A400D9B520
:102D5000FD47998F139515003315F500B3D7E4009F
:102D6000C98F33D7E50071BD1E8509BF21112AC265
:102D700036C006CAAA8622C826C6328732C4814710
:102D80000145014333866600937317003304F50051
:102D900093D2F6010583B33466008607638503008A
:102DA0003385840032838606B3E7570061FFAA8724
:102DB00089C52245EFD00FB0AA97024711C7124527
:102DC000BA85EFD02FAFAA97D2404244B2441A85B9
:102DD000BE8561018280C167637CF5029307F00FB5
:102DE0001307000263EBA7009707000093874732A1
:102DF000AA9788233305A740828021819707000086
:102E000093870731AA97882361473305A7408280BB
:102E1000B7070001636DF500618197070000938794
:102E2000272FAA97882321473305A7408280418115
:102E3000970700009387C72DAA978823414733053A
:102E4000A740828000000000000000005F0000003A
:102E5000000700070000147F147F1400242A7F2A33
:102E60001200231308646200364955225000000501
:102E700003000000001C224100000041221C000051
:102E800014083E08140008083E08080000503000EE
:102E9000000008080808080000606000000020101A
:102EA000080402003E5149453E0000427F400000B8
:102EB0004261514946002141454B31001814127FAF
:102EC00010002745454539003C4A49493000017109
:102ED00009050300364949493600064949291E00BB
:102EE000003636000000005636000000081422416B
:102EF00000001414141414000041221408000201EC
:102F000051090600324959513E007E1111117E00CF
:102F10007F49494936003E41414122007F414122DB
:102F20001C007F49494941007F09090901003E41D0
:102F300049497A007F0808087F0000417F4100006E
:102F40002040413F01007F08142241007F40404063
:102F500040007F020C027F007F0408107F003E418A
:102F600041413E007F09090906003E4151215E00B2
:102F70007F091929460046494949310001017F016D
:102F800001003F4040403F001F2040201F003F40C5
:102F900038403F00631408146300070870080700F6
:102FA000615149454300007F41414100020408103E
:102FB0002000004141417F00040201020400404022
:102FC00040404000000102040000002054545478A6
:102FD000007F484444380038444444200038444486
:102FE000487F00385454541800087E090102001824
:102FF000A4A4A47C007F080404780000447D400061
:10300000004080847D00007F102844000000417F44
:103010004000007C04180478007C08040478003820
:103020004444443800FC242424180018242418FCA8
:10303000007C0804040800485454542000043F4411
:103040004020003C4040207C001C2040201C003CD4
:103050004030403C004428102844001CA0A0A07C24
:10306000004464544C4400000000000000000000D4
:103070000000000000000000000000000000000050
:103080000000000041444320202020203D20253422
:103090007520202000000000566F6C746167652069
:1030A0003D20256C752E2530336C75562020200070
:1030B00050574D20202020203D20253475202020F1
:1030C00000000000286E756C6C290000A4EFFFFF63
:1030D00074EEFFFF74EEFFFF72EEFFFF7AEEFFFF6C
:1030E0007AEEFFFF48EEFFFF72EEFFFF7AEEFFFF82
:1030F00048EEFFFF7AEEFFFF72EEFFFF90EFFFFF5B
:1031000090EFFFFF90EFFFFF48EEFFFF000102028C
:10311000030303030404040404040404050505056F
:10312000050505050505050505050505060606064B
:10313000060606060606060606060606060606062F
:10314000060606060606060606060606070707071B
:1031500007070707070707070707070707070707FF
:1031600007070707070707070707070707070707EF
:1031700007070707070707070707070707070707DF
:1031800007070707070707070707070708080808CB
:1031900008080808080808080808080808080808AF
:1031A000080808080808080808080808080808089F
:1031B000080808080808080808080808080808088F
:1031C000080808080808080808080808080808087F
:1031D000080808080808080808080808080808086F
:1031E000080808080808080808080808080808085F
:1031F000080808080808080808080808080808084F
:0C32000008080808080808080808080862
:10320C00010203040506070801020304050607086A
:08321C00006CDC020000000060
:00000001FF
